:020000040800F2
:1000000048290020BD5E0008272C0108A95E0008D1
:10001000A95E0008A95E0008A95E0008A95E0008A4
:100020000000000000000000000000002160000847
:10003000A95E000800000000A55F00080971000823
:1000400011620008116200081162000811620008C4
:1000500011620008116200081162000811620008B4
:1000600011620008116200081162000811620008A4
:100070001162000811620008116200081162000894
:100080001162000811620008116200081162000884
:100090001162000811620008116200081162000874
:1000A0001162000811620008116200081162000864
:1000B0001162000811620008116200081162000854
:1000C0001162000811620008116200081162000844
:1000D0001162000811620008116200081162000834
:1000E0001162000811620008116200081162000824
:1000F0001162000811620008116200081162000814
:100100001162000811620008116200081162000803
:1001100011620008116200081162000811620008F3
:1001200011620008116200081162000811620008E3
:1001300011620008116200081162000811620008D3
:1001400011620008116200081162000811620008C3
:1001500011620008116200081162000811620008B3
:0C01600011620008116200081162000822
:10016C00FFFFFFFFFFFFFFFFFFFFFFFFFFFFFFFF93
:04017C00FFFFFFFF83
:1001800030B490F800F020F007016FF0000C10F090
:10019000070491F820F040F048804FF000046FF021
:1001A0000700D1E9002391F840F000F1080082FA3D
:1001B0004CF2A4FA8CF283FA4CF3A2FA8CF34BBB08
:1001C000D1E9022382FA4CF200F10800A4FA8CF281
:1001D00083FA4CF3A2FA8CF3E3B9D1E9042382FA4F
:1001E0004CF200F10800A4FA8CF283FA4CF3A2FA64
:1001F0008CF37BB9D1E9062301F1200182FA4CF29C
:1002000000F10800A4FA8CF283FA4CF3A2FA8CF302
:10021000002BC6D0002A04BF04301A4612BAB2FA24
:1002200082F200EBD20030BC7047D1E9002304F029
:100230000305C4F100004FEAC50514F0040F91F85E
:1002400040F00CFA05F562EA05021CBF63EA0503FB
:1002500062464FF00004AAE7000000000000000022
:1002600002780B78012A28BF9A4240F0D8806DE9C5
:10027000044540EA0104CDE902676FF0000C4FEA43
:1002800044721AB380EA010414F0070F6BD100F036
:10029000070420F0070004F0030521F007014FEAEE
:1002A000C505F0E8042314F0040FF1E804670CFA24
:1002B00005F462EA040266EA04060BD063EA04036A
:1002C000624667EA0407664604E000BFF0E80423DC
:1002D000F1E8046782FA4CF582EA0604A4FA8CF489
:1002E0006CBB83FA4CF583EA0705A5FA8CF595B942
:1002F00050E9022351E9026782FA4CF582EA0604CA
:10030000A4FA8CF483FA4CF583EA0705A5FA8CF578
:100310002543DBD09CB92DBAB5FA85F424F0070447
:1003200027FA04F1DDE9026723FA04F303F0FF0082
:1003300001F0FF01FDE80445A0EB0100704724BA7D
:10034000B4FA84F424F0070426FA04F1DDE9026724
:1003500022FA04F202F0FF0001F0FF01FDE804457B
:10036000A0EB0100704714F0030F3CD110F0030420
:1003700028D150F8082B51F8083B82FA4CF582EA54
:100380000305A5FA8CF55DB950F8042C51F8043C2E
:1003900082FA4CF582EA0305A5FA8CF5002DE8D027
:1003A0002DBAB5FA85F424F0070423FA04F122FAF1
:1003B00004F202F0FF0001F0FF01FDE80445A0EBAC
:1003C000010070474FEAC40420F0030050F8082BE6
:1003D00021F0030151F8083B0CFA04F462EA04022C
:1003E00063EA0403C9E710F003041DD0A1EB040184
:1003F00020F00300E40750F8042B06D012D28B78CB
:100400005FFAA2F4E41A06D12BB1CB785FFAB2F40A
:10041000E41A00D133B920465DF8104B7047A2EBC7
:100420000300704701F1040150F8042BCC0721F0C0
:10043000030151F8043B48D824D222F07F4482FAC9
:100440004CF594EA1325A5FA8CF50AD165B951F853
:10045000043B84EA0204B4EB036F0ED150F8042B82
:10046000EBE74FEA132355E035F07F454DD108788F
:10047000FDE80445C0F1000070474FEA126203F046
:10048000FF0347E002EA1C4482FA4CF594EA134564
:10049000A5FA8CF50AD165B951F8043B84EA020447
:1004A000B4EB034F0CD150F8042BEBE74FEA1343A6
:1004B00030E015EA1C4528D10B884FEA124229E0AA
:1004C0004FEA124203EA1C4324E002F0FF0482FADE
:1004D0004CF594EA1365A5FA8CF50AD165B951F883
:1004E000043B84EA0204B4EB032F09D150F8042B37
:1004F000EBE74FEA13630DE015F0FF0F05D10B6832
:100500004FEA122223F07F4304E04FF00000FDE8A1
:100510000445704712BA1BBA82FA4CF482EA03040B
:10052000A4FA8CF5B5FA85F402FA04F203FA04F39E
:100530004FEA1260FDE80445A0EB1360704700BF6E
:100540007BB972B90029BEBF00204FF0004106E020
:1005500008BF00281CBF6FF000414FF0FF3000F0D3
:1005600057B8ADF1080C6DE904CE002909DB002B6A
:100570001ADB08F037FADDF804E0DDE9022304B005
:100580007047404261EB4101002B1BDB08F02AFA67
:10059000DDF804E0DDE9022304B0404261EB4101F3
:1005A000524263EB43037047524263EB430308F04C
:1005B00019FADDF804E0DDE9022304B0404261EB02
:1005C00041017047524263EB430308F00BFADDF838
:1005D00004E0DDE9022304B0524263EB43037047B9
:1005E00053B94AB9002908BF00281CBF4FF0FF319A
:1005F0004FF0FF3000F00CB8ADF1080C6DE904CEFF
:1006000008F0F0F9DDF804E0DDE9022304B07047FA
:10061000704700BF80EA0102844612F0030F4FD1F9
:1006200011F0030F32D14DF8044D11F0040F51F8C1
:10063000043B0BD0A3F101329A4312F0803F04BF78
:100640004CF8043B51F8043B16D100BF51F8044B61
:10065000A3F101329A4312F0803FA4F101320BD191
:100660004CF8043BA24312F0803F04BF51F8043B16
:100670004CF8044BEAD023460CF8013B13F0FF0F73
:100680004FEA3323F8D15DF8044B704711F0010FA6
:1006900006D011F8012B0CF8012B002A08BF704777
:1006A00011F0020FBFD031F8022B12F0FF0F16BF6E
:1006B0002CF8022B8CF8002012F47F4FB3D1704736
:1006C00011F8012B0CF8012B002AF9D1704700BF5B
:1006D000844641EA000313F0030349D1403A23D38F
:1006E0000B6803604B6843608B688360CB68C360B2
:1006F0000B6903614B6943618B698361CB69C3619A
:100700000B6A03624B6A43628B6A8362CB6AC36281
:100710000B6B03634B6B43638B6B8363CB6BC36369
:1007200040304031403ADBD230320BD30B680360AB
:100730004B6843608B688360CB68C36010301031B6
:10074000103AF3D20C3205D351F8043B40F8043B85
:10075000043AF9D2043208D0D2071CBF11F8013B89
:1007600000F8013B01D30B8803806046704700BF4F
:10077000082A13D38B07B1D010F00303AED0C3F116
:100780000403D21ADB071CBF11F8013B00F8013B40
:10079000A4D331F8023B20F8023B9FE7043AD9D3B7
:1007A000013A11F8013B00F8013BF9D20B780370D4
:1007B0004B7843708B7883706046704770B48407C1
:1007C00046D0541E002A41D0CDB2034602E0621E3C
:1007D000E4B3144603F8015B9A07F8D1032C2ED931
:1007E000CDB245EA05250F2C45EA054519D926461F
:1007F00003F11002103E0F2E42F8105C42F80C5C20
:1008000042F8085C42F8045C02F11002F2D8A4F14C
:10081000100222F00F0204F00F041032032C1344D4
:100820000DD91E462246043A032A46F8045BFAD83C
:10083000221F22F003020432134404F003042CB1FB
:10084000C9B21C4403F8011BA342FBD170BC704722
:1008500014460346C2E700002DE9F04F8FB00B901D
:100860000D46174613F061FA4B0143EAD063440189
:10087000241A63EB01039B0043EA9473A400241839
:1008800043EB0101C90041EA5471C4F3D51444EAB1
:1008900081544FEA9128012D68D07D68294640484F
:1008A000FFF7DEFC28B129463E48FFF7D9FC0028B7
:1008B00066D139A3D3E9002320464146FFF740FE25
:1008C0000C900E4634A3D3E9002320464146FFF79F
:1008D00037FE15461C46344A002328462146FFF7BA
:1008E0002FFE07460D91304A002328462146FFF788
:1008F00027FE15461C464EF6602200232846214658
:10090000FFF71EFE814688464EF6602200232846E9
:100910002146FFF715FE15461C464FF47A72002358
:1009200028462146FFF70CFE83468A464FF47A722A
:10093000002328462146FFF703FECDE90823CDF822
:1009400018B0CDF81CA0CDF81090CDF81480029707
:100950000D9B03930C9B00930196144A08210B985E
:1009600011F098F800200FB0BDE8F08F0094CDF89A
:1009700004800F4A08210B9811F08CF80020F2E750
:100980002B460C4A01210B9811F084F86FF00400FB
:10099000E9E700BFAFF30080005C2605000000001F
:1009A000F0680108F468010880EE36001869010853
:1009B000DC68010800690108F0B585B001284DD157
:1009C0000D468A682E4B9A424FD813F0AEF9800A32
:1009D00040EA8150890A2B4CA0FB047004FB0106FD
:1009E00013F0A3F9C0F30900A0FB0403800A40EA56
:1009F00083503F1846F100062B686968A3FB043258
:100A000004FB0122A9685B1842EBE172DF1B62EB79
:100A1000060619A3D3E9002338463146FFF790FDB7
:100A2000CDE9000114A3D3E9002338463146FFF78E
:100A300087FD0292EFF31185102383F31288BFF331
:100A40006F8F114C6B4413E90F0084E80F0085F39E
:100A50001188BFF36F8F002005B0F0BD12F035FA9A
:100A6000162303604FF0FF30F6E712F02EFA16233C
:100A700003604FF0FF30EFE700CA9A3B0000000030
:100A8000FFC99A3B00CA9A3B2004002000000000E6
:100A900030B589B004460C9D0020C4F80801C4F8A4
:100AA0000C0104F58870C4F81001C4F8140104F5B1
:100AB0008C70C4F81801C4F81C011DB3287918BB48
:100AC0000120C4F820019FED127B8DED067B0020F4
:100AD000049003930290019000940F4B204612F073
:100AE00074FE55B1296811B1204606F073FE6B798A
:100AF0001BB1237B43F001032373204612F055FE04
:100B000009B030BD0120DCE740F20110D9E700BF99
:100B1000FFFFFFFFFFFFFFFFE988000810B5044655
:100B2000084810F0E3F904F1300000F09BF90649A1
:100B3000204612F0ECF904F11C00102113F044FBE4
:100B400010BD00BF005F0108C45F010810B5044676
:100B5000084810F0CBF900F061FA204610F0E0F8F8
:100B60000549204612F0D3F904F11C00042113F0CA
:100B70002BFB10BD105F0108C45F010810B50446CF
:100B8000094810F0B3F904F1290000F061F920469A
:100B900010F0CBF80549204612F0B9F904F11C0019
:100BA000082113F011FB10BD205F0108C45F01088C
:100BB00010B50446084810F099F904F1290000F036
:100BC00005FA0649204612F0A2F904F11C000121A1
:100BD00013F0FAFA10BD00BF2C5F0108C45F0108D2
:100BE00010B584B0044602238DF8083000238DF838
:100BF00009308DF80A30164810F078F9204610F0C8
:100C000072F808BB134810F071F900F039FA0121AD
:100C100001A80CF013FA9DF80A309DF809209DF800
:100C200008100D4810F062F901990C4810F05EF9B7
:100C30000B4810F05BF9012384F82930094920465C
:100C400012F065F904B010BD074810F04FF9D9E76C
:100C5000385F0108645F0108705F01088C5F01085C
:100C6000985F0108C45F0108445F010810B582B0B5
:100C70001C4C204613F09EFA1B49A4F11C0012F0F4
:100C80002DF91A4810F032F912E01949194812F0FA
:100C90003EF91CE01849174812F039F91AE01749D3
:100CA000144812F034F918E01549124812F02FF9DF
:100CB0004FF0FF324FF0FF33CDE9002300221F2118
:100CC000084813F087FA044610F0010FDDD114F044
:100CD000080FDFD114F0040FE1D114F0100FE7D0AA
:100CE000E2E700BF1C000020B85F0108AC5F01080C
:100CF000D05F010800000020DC5F0108E85F010808
:100D0000F45F010838B5836805699C697CB112F409
:100D1000000F06D02D6801238B401D4201D082F0C8
:100D2000C062044B134002F0B072A04738BD6FF0B0
:100D30005700FBE74000000638B50446006812F093
:100D400088FCE8B14FF4803120460FF070FF054673
:100D500008B1284638BD206821794FF0B862FFF706
:100D6000D1FF05460028F4D122790123934006499A
:100D7000064A4A618B61103120680FF08AFFE8E76C
:100D80006FF01505E5E700BF00000020A70C010883
:100D900008B5044A082110F07DFE0121024813F035
:100DA0000EFA08BD006001081C00002010B582B0DA
:100DB0000446074A082110F06DFE03F0E7F8CDE97C
:100DC0000001044A0821204610F064FE02B010BD64
:100DD000186001082060010810B50446134600227F
:100DE000114658680EF06EFB002814BF0122002245
:100DF000084B83F828200AD1074B084A08212046CF
:100E000010F048FE0221064813F0D9F910BD054B39
:100E1000F3E700BF000000203860010840600108CF
:100E20001C0000203C60010808B580230022064910
:100E300013F0FEFC802800D108BD80220146034843
:100E400010F054F8F8E700BFC00A00201061010854
:100E500008B501230370024810F048F808BD00BF30
:100E60004461010810B50446D0E90023034810F09E
:100E70003DF800220023C4E9002310BD6061010891
:100E800030B583B00546002000F07CF904462DBB48
:100E900001238DF804308DF805308DF800308DF881
:100EA000013001A9204613F02DFC0146D8B11648A7
:100EB00010F01CF86946204613F03AFC0146B0B128
:100EC000124810F013F8B5B100221146204613F075
:100ED00085FB0F4810F00AF803B030BD0D4810F044
:100EE00005F80223D5E70C4810F000F8E2E70B48BC
:100EF0000FF0FCFFE7E701220021204613F067FB1B
:100F000007480FF0F3FFE7E79C610108EC61010877
:100F10003C62010884610108CC6101081C6201087F
:100F20004C62010870B5064614461D461B4B1A63F9
:100F30005D631B4B1A4208D012F0080F16D013F055
:100F40007FFC0421174813F03AF904F0AA4305F096
:100F50002202134306D014F0807F0CD008211148E0
:100F600013F02DF915F4007F0AD170BD10210D4842
:100F700013F025F9E9E710210A4813F020F9F1E709
:100F80000022114630460CF083F8074B18700028F9
:100F9000EBD01021034813F012F9E6E7000000201F
:100FA000088D01001C000020DC13002010B5144641
:100FB000012313F03BFC844200D110BD22460146C0
:100FC00001480FF093FFF8E71061010838B50446B7
:100FD000002000F0D7F823789BB1054603220B4987
:100FE000FFF7E4FF0A480FF081FF00231A46194675
:100FF000284613F0F1FA07480FF078FF002323701A
:1010000038BD05480FF072FFFAE700BF5800002016
:1010100060620108746201088C62010870B586B0D4
:101020000020009000F0AEF8064601AA022113F05D
:1010300003FC044609E029460E480FF057FF01AAB9
:101040000221304613F0F8FB044684B16A4601A938
:1010500009480FF083FE05462146304613F0F2FBA7
:1010600001460028E7D005480FF040FFE3E706B04F
:1010700070BD00BFC8620108440B0020A4620108D3
:1010800010B50FF074FE02F065FE11F092FD0FF046
:10109000B1FE11F08DFD002000F074F8074C2060C7
:1010A000FFF7C2FE00221146206813F097FA00B93C
:1010B00010BD014602480FF019FFF9E7400B002070
:1010C000E062010810B58AB00023069307930893E5
:1010D0000993254B0693254906A80BF085FD244B63
:1010E000186030B10023059305A913F09DFB08B1EA
:1010F000FEE7FEE71E4C1F4A1F4B196820680BF0E5
:1011000087FF0021206811F004FB00B1FEE71B49B6
:10111000174B18680CF01CF800B1FEE74FF0FF32D7
:1011200040F2FF33CDE900234FF0FF324FF0FF33A1
:101130000F49086813F0FEFA00B1FEE7104B1B8858
:10114000ADF81030ADF80C3004A9094B186813F055
:10115000D9FA00B1FEE703A9054B186813F0E8FAC5
:1011600000B1FEE70AB010BDED0D0108CF0D01087A
:101170005C000020D90D010860000020070011006C
:10118000C05A010882B0054B019302AB03EB80000B
:1011900050F8043C186802B0704700BF5C000020A3
:1011A00008B5024B1B68984708BD00BF70000020BF
:1011B000014B1860704700BF7000002000B585B07B
:1011C0000A460023009301930293039302238DF8B0
:1011D0000230044B0193014668460EF00BFB05B04C
:1011E0005DF804FBA111000870B59646022A8CBF79
:1011F00000220122801A61F10001002978DBCC175E
:1012000004F02105C0F3130C020D42EA0132C2F3CF
:1012100013029444C1F3132294440CEB117CAC44AC
:10122000554AA2FB0C52D20802EB820202EB820268
:10123000ACEB020C24F01704A444B0EB0C0261EBFD
:10124000EC714E4C4E4D02FB05F504FB0155A2FB23
:10125000042129448C460029C0F28780120942EA01
:101260000C714FEA2C1C474A02FB0100BEF1020F31
:101270007FD96FF00202724402EBC20202EB02124B
:101280000232414CA4FB024203EB9202830840F27B
:101290006D1404FB0033384CA4FB0040A3EB50104A
:1012A00083184FEACC0040EA5170CA0052184CEB48
:1012B0000000000140EA1270120152184CEB0000CD
:1012C000000140EA12701201521A60EB0C00810119
:1012D00041EA92614FEA821CBCEB020261EB000121
:1012E000D01841F10001294BC01861F1000170BD17
:1012F0006FF4C772821861F10001CD1705F0210C5F
:10130000C2F31304160D46EA0136C6F3130634443D
:10131000C1F31326344404EB11746444164EA6FB47
:10132000046C4FEADC0C0CEB8C0C0CEB8C0CA4EB7F
:101330000C0425F017052C44121B61EBE4710F4CD3
:101340000F4D02FB05F504FB0151A2FB04240C44E4
:10135000A446002C05DB120942EA0C714FEA2C1C52
:1013600081E70F3244F1000CF5E70F3241F1000C38
:1013700074E709227FE700BF1F85EB51295C8FC20C
:10138000F5285C8F70FEFFFFCDCCCCCC9405F5FF2B
:1013900010B4194B5A6E02F4803203F580514FF4A9
:1013A00080304866586E4FF000434B66134B596CC3
:1013B00001F001014AF6CD341C64104B5B6B13F055
:1013C000010FFAD10E4B01245C600C4B1B6B13F028
:1013D000010FFAD011B1094B0A491964002803DB47
:1013E000094B4FF0004159661AB9074B4FF4803250
:1013F0005A665DF8044B7047008000500040095069
:10140000006009503254FFFF00A0005008B5802052
:1014100003F02CF909280FD00A4BD3F84C3113F400
:10142000802F06D1074BD3F85031C3F30643064A49
:101430005370054803F0D6FA4FF4004004F092FBD5
:1014400008BD00BF0080E00F74000020014B036066
:10145000002070479C68010808B5034B034A082127
:1014600010F018FB002008BD9C680108A86801085E
:1014700030B583B0054613460022019201AA0A2125
:10148000586810F068FC019C24B90FF074FE2046E7
:1014900003B030BD2346034A0121284610F0FAFA72
:1014A000019CF4E7BC68010810B5044605F0D2FEC3
:1014B0000346084A0821204610F0ECFA064A0821A3
:1014C000204610F0E7FA2146044806F0A3FE00206B
:1014D00010BD00BF6869010888690108E1140008AF
:1014E000F0B58FB004460D46D0F8B07012F05BF93D
:1014F000064606F0BFFD84422FD0234B7EB30196F3
:101500000094224A0821284610F0C4FA94F90E30BB
:10151000D4E90A01CDE902010093237B1C4A08218A
:10152000284610F0B7FA202205A9204606F064F9F3
:101530000346626F0092174A0821284610F0AAFA63
:101540000DA9204612F078F9034650B1124A08213D
:10155000284610F09FFA0FB0F0BD104BCEE7104EAA
:10156000CDE70D9AB91A642301FB03F3B3FBF7F33C
:1015700003930297019100923B460A4A08212846AC
:1015800010F088FAE7E700BFD47401089C690108ED
:10159000A8690108D4690108EC6901089469010887
:1015A000986901081C6A0108F0B589B004460D4627
:1015B000D0F8B06007A912F03FF9C8B9204612F080
:1015C000F2F8079AB11A642301FB03F3B3FBF6F3B5
:1015D0000746A0B1059304960391029201960097E5
:1015E0002346084A0821284610F054FA09B0F0BDF5
:1015F0000346054A0821284610F04CFAF6E7034F47
:10160000E8E700BF546A0108EC690108986901081D
:1016100070B592B0054600240A940B940C940D9476
:101620000E940F94109411944FF020330A930B935F
:101630000C930D930E930F93ADF840300146144870
:1016400006F0E8FD14B1002012B070BD114E06EB9B
:10165000C42609AA4FF40061304612F0D8F809995F
:10166000C1F50060642200FB02F2D20A06924FF438
:10167000006305930490039102930AAB01930094D5
:101680003346054A0821284610F004FA0134D9E708
:10169000A9150008081C0020986A010810B5044626
:1016A00005F0F8FD0346034A0821204610F0F2F940
:1016B000002010BDE46A010810B503460C4611462F
:1016C000006808B1027822B9024A20460DF058FE9F
:1016D000204610BD806C010870B586B0054605A88F
:1016E00005F0F8FD00EB8000059E06EB8006124A2F
:1016F0000821284610F0CEF9059C06E00F4B104A51
:101700000821284610F0C6F91434B44211D214222C
:1017100069462046FFF7D0FF03460A4A08212846BB
:1017200010F0B8F9204611F094FF0028E6D0064BDF
:10173000E5E7002006B070BD9C6C0108906C0108C4
:10174000B06C0108A86C0108886C010810B586B05F
:101750004B690A690C6804944C6803948C68029481
:10176000C96801910132009203F26C73024A0821A8
:1017700010F090F906B010BD306D01082DE9F04170
:1017800082B007460D461446002301930A2201A9A0
:1017900020460DF023FE019BA34240D006461A7856
:1017A0002D2A3FD15C1C002301930A2201A9204667
:1017B0000DF014FE8046019AA24236D013782D2BEC
:1017C00036D1431E0B2B1AD8541C002301930A2236
:1017D00001A920460DF002FE019BA3422BD01B78ED
:1017E00063BB431E1E2B12D8A6F26C766E6108F105
:1017F000FF332B61E860002002B0BDE8F081114AA0
:101800000121384610F046F96FF01500F4E70E4A52
:101810000121384610F03EF96FF01500ECE76FF04B
:101820001500E9E76FF01500E6E76FF01500E3E754
:101830006FF01500E0E76FF01500DDE76FF01500C1
:10184000DAE700BF546D0108646D010870B582B01D
:1018500006460D46144613783A2B17D101342378E7
:101860003A2B2DD10134002301930A2201A92046ED
:101870000DF0B4FD2860019BA3424FD01B78002BD4
:101880004FD13C2836D8002002B070BD0023019310
:101890000A2201A920460DF0A1FDA860019BA342E8
:1018A00030D01A783A2A30D1172801D85C1CD6E7F4
:1018B0001D4A0121304610F0EDF86FF01500E3E706
:1018C000002301930A2201A920460DF087FD6860DC
:1018D000019BA3421CD01A783A2A1CD13B2801D87C
:1018E0005C1CC0E7114A0121304610F0D3F86FF0BC
:1018F0001500C9E70E4A0121304610F0CBF86FF011
:101900001500C1E76FF01500BEE76FF01500BBE7EB
:101910006FF01500B8E76FF01500B5E76FF0150030
:10192000B2E76FF01500AFE7746D0108846D010830
:10193000946D010870B58EB004460D4616460AA98E
:10194000012005F061F901A90AA80DF025FC032D7D
:1019500021D0022D3ED1726801A92046FFF776FF03
:1019600090BB01A80FF02FFB0A900B91B1F1FF3F44
:1019700008BFB0F1FF3F33D000230C930AA9012028
:10198000FFF71AF8054698BB01A92046FFF7DEFECF
:1019900028460EB070BD726801A92046FFF7EEFE22
:1019A00060B9B26801A92046FFF750FF0028D8D0DF
:1019B000204610F0AEF86FF01505E9E7204610F06C
:1019C000A8F86FF01505E3E7204610F0A2F86FF0D5
:1019D0001505DDE7204610F09CF86FF01505D7E7F8
:1019E000084A0121204610F055F86FF01505CFE7A1
:1019F0000346054A0121204610F04CF86FF015050A
:101A0000C6E700BFA46D0108D06D010808B5102A13
:101A100012D0202A13D0082A06D00A4A082110F032
:101A200039F86FF0150006E00B78DBB2064A0821A2
:101A300010F030F8002008BD0B889BB2F6E70B6869
:101A4000F4E700BF746E01088C6E010808B5029BB4
:101A5000102A0ED0202A10D0082A06D0084A0821C1
:101A600010F018F86FF0150002E0DBB20B700020E8
:101A700008BD9BB20B800020FAE70B600020F7E75F
:101A8000746E01088B1E022B3AD82DE9F04182B00A
:101A900005460C4616461022002170680DF012FD16
:101AA0008046022C1FD820273B46174A082128468B
:101AB0000FF0F0FF032C1DD910220021F0680DF06B
:101AC00001FD04460346114A082128460FF0E2FFB3
:101AD0000094002301933A4641462846FFF7B6FF9B
:101AE00002B0BDE8F0810A220021B0680DF0EAFCE6
:101AF000C7B2D9E73A4641462846FFF787FFEFE7E6
:101B00006FF01500704700BFA06E0108B86E0108A5
:101B100038B504460D4611B10F4B1B785BB90E4A20
:101B2000137883F00103137063B92946204610F03F
:101B30000CF8002038BD094A01210FF0ABFF6FF00F
:101B40000F00F7E7064A082120460FF0A3FF024BDB
:101B500001221A70E9E700BFDD130020CC6E0108F6
:101B6000086F0108F8B507460E4615460023244ABB
:101B70001370244A1360244A13600CE000231C44B1
:101B800002222249204613F001F998B91C4B012288
:101B90001A700435013E012E1ED96C6802221C49C0
:101BA000204613F0F3F80028E8D1A378002BE6D004
:101BB0000123E4E716492046FEF752FB58B123788B
:101BC0002D2B09D163783BB12346124A08213846B0
:101BD0000FF060FFDDE704350022114668680DF064
:101BE000FDFB0D4B18600022114668680DF0F6FBF6
:101BF0000A4B18600A493846FFF78AFF0020F8BDF3
:101C0000DF130020C80B0020CC0B0020386F010828
:101C1000346F01083C6F0108D40B0020D00B00206A
:101C2000251C000838B50546554B1B78182B01D0EC
:101C3000002305E00B78112B32D0002300E00133A4
:101C400002F1FF3C9E469C4509D9CC5C182CF6D18C
:101C50008E449EF801001128F1D1012300E00023F9
:101C6000F3B911F80C20464B1A700A78A2F1300330
:101C7000DBB2092B09D9A2F16103DBB2052B04D930
:101C8000A2F14103DBB2052B05D83E490B683E4863
:101C9000C25401330B603B4B1B68022B5ED038BD36
:101CA0003A4B1B683A4A082128460FF0F3FE002100
:101CB0002846FFF72DFF374B1B78002BEFD113E0A1
:101CC000354D2A681068030A03F47F4343EA106322
:101CD000040204F47F04234343EA006342F8043B14
:101CE0002A600439294B1960284B19680429E7DC5C
:101CF00011F0030F0FD1284B18680268130A03F480
:101D00007F4343EA1263110201F47F010B4343EA6C
:101D100002630360C3E74B4201F0030103F00303D6
:101D200058BF594202290FD00329B8D11A4B19685C
:101D30000B68C3F3074203F47F4002431B0403F420
:101D40007F0313430B60AAE7134B19680B68C3F3B7
:101D500007221B029BB213430B60A0E71022002155
:101D600009480DF0AFFB0D4A136803F8010B13602F
:101D7000064A136801331360024B00221A608EE793
:101D8000DE130020C80B0020C40B0020CC0B002069
:101D9000546F0108DF130020D00B0020D40B00206B
:101DA0002DE9F04385B080460F4615461C46DE08F7
:101DB000002D5DD04FF0000C08E01CF807300CF14E
:101DC00010010DEB010C0CF8103C9446B54240D3C9
:101DD0000CEB0602102A3CD8102C0DD0202C1BD066
:101DE000082CEAD0234A082140460FF053FE6FF03A
:101DF000150005B0BDE8F0833CF807300CF1100188
:101E0000694401F8103CC3F307230CF111010DEBF9
:101E1000010C0CF8103CD8E75CF807300CF110010D
:101E2000694401F8103CC3F307200CF11101694427
:101E300001F8100CC3F307400CF11201694401F8DA
:101E4000100C1B0E0CF113010DEB010C0CF8103CE7
:101E5000BBE7A946102D28BF4FF010094B466A4634
:101E60003946404600F0BAFE1037A5EB09059FE75A
:101E70000020BEE7746E01082DE9F84306460D46C2
:101E80001446414B01221A6004F0B8FD4FF0FF37B1
:101E90004FF02009B8463D4A2146284604F0D2FDBD
:101EA000B0F1FF3F51D073281FD0772835D061287B
:101EB00003D06FF01500BDE8F88310220021344BE9
:101EC00018680DF0FFFA07460028E4D110F0FDFF76
:101ED0000368162BDFD12E4B1B682E4A012130469A
:101EE0000FF0D8FD6FF01500E5E700221146284BF2
:101EF00018680DF0E7FA80460028CCD110F0E5FF15
:101F00000368162BC7D1224B1B68234A0121304698
:101F10000FF0C0FD6FF01500CDE7002211461C4BFD
:101F200018680DF0CFFA81460028B4D110F0CDFF2B
:101F30000368162BAFD1164B1B68184A0121304697
:101F40000FF0A8FD6FF01500B5E7B7F1FF3F0AD01D
:101F5000B8F1FF3F0FD05FFA89F342463946304669
:101F6000FFF71EFFA7E70E4A012130460FF092FD52
:101F70006FF015009FE70B4A012130460FF08AFDF4
:101F80006FF0150097E700BF08010020AC6F010853
:101F9000740F0020706F0108846F0108986F0108AA
:101FA000B46F0108D46F010810B50246034653F818
:101FB000584B4021C16403630023C36383634363BD
:101FC00083644364036400F150010820D06211610E
:101FD000D36193615361936253621362C2F8D0304C
:101FE000034920460FF0EFF820460FF006F910BD28
:101FF000F713010810B582B0094811F02AFB58B157
:10200000002400940123074A12680549064800F09D
:10201000A1FE204602B010BD6FF01200FAE700BF2B
:102020007857010898710108485A010883681975A2
:10203000022900D0704710B5044683689B6C03B139
:1020400010BD0FF0F2F9A368D3F8783213F4805F73
:1020500003D1204610F0C2F8F2E7054B054A0321F0
:10206000204610F01EF8002120460FF069FAF0E734
:10207000E07101082472010808B58368D3F874324E
:1020800013F0200F00D108BD024940690FF03DFB5D
:10209000F9E700BFC45A010810B504468168183139
:1020A00001F0F6FAA168034A1831204610F0B6F89C
:1020B00010BD00BF2872010809B10020704710B59B
:1020C000044683689B69054A01210FF0EAFF204618
:1020D000FFF7E2FF6FF0150010BD00BF3872010876
:1020E000F8B5044616468068426A72B10D4690F80B
:1020F000282092B390F82930FF2B25D0AA4226D869
:102100001344AB4248D2002122E0ABB15A68002A06
:1021100044D0C1698A420AD000F1180E9C46BCE83E
:102120000F00AEE80F00DCF80030CEF8003020469B
:10213000FFF7B2FF01272DE01A4A012120460FF0D8
:10214000B0FF6FF0070725E04FF6FF73D6E70021D9
:102150002046FFF7B1FF0746E0B9012120460FF006
:1021600037FAA06800F5437005F0CEFAA3685B6A01
:1021700032462946204698470746A06800F5437036
:102180004FF0FF324FF0FF3305F03EFA00212046BA
:102190000FF01EFA3846F8BD0121D9E76FF00707A6
:1021A000F8E700BF5472010891B110B50446084623
:1021B000D36803B910BD20460FF0D0FE204601F0D1
:1021C0006FF8044A012120460FF06BFF0020F1E771
:1021D00001207047747201082DE9F047A6B0064649
:1021E000542200210CA8FEF7E9FA00230693059378
:1021F00004934FF0FF330393B36803F1560A30465C
:102200000FF0ACFE30460FF03BFEC8B1B3680027BC
:102210009F61DF611F625F629F6230460FF08DFD3C
:10222000B168B1F85020563130460FF085FA30468B
:1022300010F021FA0897B8460CACB9463D465BE071
:102240006C4970690FF061FAE0E700286AD0034634
:10225000694A012130460FF024FF6FF00700A1E02A
:10226000206801F037FA00285FD0089B5BB1B468A2
:10227000183407AD0FCD0FC42B6823603046FFF72D
:102280000BFF01208EE05D4A012130460FF009FF6F
:102290006FF0070086E022682946304610F010FAF9
:1022A000022868D0032843D0069B013306934FF0E1
:1022B000010921E021AA216838460FF0E9FC054612
:1022C00039E0069B93B9B368DB6A23B1DB6813B1CD
:1022D0004FF0010848E04A4B00930C9B494A01210A
:1022E00030460FF0DEFE4FF001083DE04FF00108F0
:1022F0003AE0069B01330693049B012B3BD0069BDF
:10230000132B38D8039B002B35D00223524621468D
:1023100004A800F059FED4F804A0049B002B63D05D
:10232000012B92D0069B002B9AD1069B002BB2D199
:10233000B8F1000FBED00434039B013B0393002D82
:10234000BFD02A4649463046FFF72EFF00284ED020
:10235000B16803AB019305AB009306AB07AA183134
:1023600028460FF081F82F46039B002BC1D1049B18
:10237000022BC1D1BDE7069B132B02D9049B022B74
:1023800013D0B9F1000F19D117B17B7CFE2B20D0EF
:10239000059907AB0CAA02EB81020698411A304658
:1023A000FFF79EFE26B0BDE8F087174B174A0121C4
:1023B00030460FF076FE6FF00700F3E7304610F07E
:1023C00092F9B268142356320CA906A800F0FCFD5D
:1023D000DAE7069B26AA02EB830252F8682C002A51
:1023E000D6D001330693D3E76FF00700DAE76FF03A
:1023F0000700D7E740840108A4720108547201085D
:10240000C0720108B8720108D4720108F87201089C
:10241000F0B583B004461D468068B0F85030FF2BFD
:1024200049D00F461646B0F8522000F1560100F58B
:10243000AB70FEF74DF9A368B3F8522013440022A5
:1024400083F85621A268142302F5AB72316828463E
:1024500000F0BAFD2B68142B30D83268002142F806
:102460002310A368B3F85220D2B1013A134493F871
:102470005630144AD35C03F008032C6894B113B9A6
:10248000012C0FD0013C00200190099B0093089B78
:10249000326821460FF01FFC386048B101200BE084
:1024A0000023EAE70023089A13603B60012003E061
:1024B00034B9012000E0002003B0F0BD0020FBE7AC
:1024C0000020F9E74DDC0108F8B504460E461F462A
:1024D00072B31046FDF754FE85B2A2681832394631
:1024E000304600F097FD066826B33046FDF748FEFB
:1024F00080B2A84220D1A268B2F85230134493F8B7
:1025000056301649CB5C13F0080F21D1D2F8743243
:1025100013F0010F17D0002120460FF089F8202179
:1025200020460FF009FE012120460FF081F8F8BD8A
:102530000025D2E70020DCE7421B92B27119204649
:102540000FF016FED7E7202120460FF0F5FDEEE74D
:10255000012120460FF0AFFCE9E700BF4DDC010888
:102560002DE9F04182B0064649B30F46023294B2DB
:10257000D0F80880B8F83A50023D95FBF4F5ADB2BA
:102580000846FDF7FDFD80B2241AA4B2B8F8403029
:102590005A1CA8F84020B3FBF5F205FB12339BB29E
:1025A00093B900970C4B0D4A062130460FF079FD88
:1025B0002146304600F030FE02B0BDE8F08183686D
:1025C0000022A3F84020F7E73B46054A06213046A3
:1025D0000FF067FDECE700BFFC7201080073010813
:1025E000247201082DE9F84F074689461D460A9EC8
:1025F000BDF82CB0904652B11046FDF7C1FD1FFA50
:1026000080FA5A4600213846FFF7AAFF08E04FF04B
:10261000000AF6E75A4621683846FFF7A1FF013E57
:10262000A6B1BA6818322946484600F0F3FC0446C1
:102630000135B8F1000FEDD000680028EAD052460D
:10264000414612F0A3FB0028E4D0E9E70449786989
:102650000FF05BF838460FF0C1FDBDE8F88F00BF02
:102660004084010810B50446013916290FD8DFE867
:1026700001F00C0F1226292C0E0E0E0E2F320E4CCE
:102680000E500E0E0E0E540E61000FF05EFC10BDCB
:102690000FF06FFCFBE70FF061FC20460FF0F0FB42
:1026A00040B1012120460EF0ABFF02212046FFF78A
:1026B000BDFCECE7234960690FF027F8F1E70FF064
:1026C0005BFDE4E70FF04AFCE1E70FF05DFCDEE7BD
:1026D0000FF067FCDBE78368D3F8743213F0200F48
:1026E00009D1A368D3F8743213F0200F08D1204623
:1026F0000FF074FDCBE7144940690FF006F8F0E7DE
:10270000124960690FF001F8F1E700210FF010F9AC
:10271000BDE701210FF00CF9B9E70FF016FC2046D8
:102720000EF083FE012120460EF06AFF2046FFF7DF
:10273000A3FCACE700F05CFE012120460EF060FF38
:10274000A5E700BF40840108CC5A0108D45A01080B
:1027500070B586B0044600230593A3689D6CF5B15F
:10276000606803681E6905AB10226946B047059B87
:102770009BB1012120460EF02BFF059A69462046A9
:10278000A847002120460EF023FFA3689B6C002B76
:10279000E3D102212046FFF749FC06B070BD606816
:1027A00003681D6905AB01220DF11301A847059BC4
:1027B000002BF2D09DF813109DF91330002BCCDBC9
:1027C000A268537D032B00F25081DFE813F0040070
:1027D000B800CA004B0120460EF070FE002841D11F
:1027E0009DF813101B2953D81B2900F28E8001A3DA
:1027F00053F821F05B2700080B2900080B2900087B
:102800000B2900080B2900080B2900080B290008D8
:102810000B290008E5280008C72800080B29000834
:102820000B2900080B2900080B2900080B290008B8
:102830000B2900080B2900080B2900080B290008A8
:102840000B2900080B2900080B2900080B29000898
:102850000B2900080B2900080B2900080B29000888
:10286000BF280008A568B5F850305BB920460EF0C7
:102870005AFF7F4960690EF048FF02212046FFF7AA
:10288000D5FB6AE72046FFF7A7FCC5F82403F4E769
:102890007F293AD1A368D3F8743213F0020F3FF4C2
:1028A0005CAF012120460EF0ABFEA368D3F8743272
:1028B00013F0080F25D020460FF07DFC4DE7A368EC
:1028C00001225A7549E7A368D3F8743213F0020F56
:1028D0003FF443AF012120460EF092FE20460EF059
:1028E000CFFF3AE7A368D3F8743213F0020F3FF436
:1028F00034AF012120460EF083FE20460FF05BFC32
:102900002BE720460FF038FC27E75A4B5B5C13F0AF
:10291000970F0AD1A368D3F8743213F0020F3FF473
:102920001CAF2046FFF79EFE17E7012120460EF060
:1029300067FE9DF8131020460FF0FEFB0DE75B29A4
:1029400008D0D2F8743213F0020F06D1A368002227
:102950005A7502E702235375FFE620460EF0D9FFB1
:10296000F4E700235375A368D3F8742212F0020F22
:102970003FF4F3AE31391B293FF6EFAE01A252F816
:1029800021F000BF252A0008312A00084B2A000840
:10299000192A00085B2700085B2700085B2700084E
:1029A0005B2700085B2700085B2700085B270008FF
:1029B0005B2700085B2700085B2700085B270008EF
:1029C0005B270008F5290008FF290008092A0008EC
:1029D000112A00085B2700081D2A00085B27000851
:1029E000292A00085B2700085B2700085B270008EE
:1029F000352A0008012120460EF09AFFADE600219D
:102A000020460EF095FFA8E620460FF0BDFAA4E69A
:102A100020460FF0AEFAA0E603225A7520460FF0CA
:102A20009DFA9AE603225A7520460FF08EFA94E634
:102A300003225A75A368D3F8741201F0010181F0E2
:102A4000010120460EF0F4FD87E603225A75A368C3
:102A5000D3F8743213F0020F3FF47FAE20460FF02C
:102A60008BFB7AE60023537577E60023537574E6F3
:102A7000408401084DDC010810B504468068037DE0
:102A8000012B21D100F543704FF0FF324FF0FF339F
:102A900004F0BAFD0821204600F080FC206818B13F
:102AA000FDF76EFB80B250B902212046FFF7BEFA57
:102AB000A06800F5437004F027FE002010BD044913
:102AC00060690EF022FEEFE76FF08500F6E700BFC9
:102AD000506A010838B504461546003918BF01216F
:102AE0000EF046FDA368DD64606803689B68002102
:102AF000984700B138BD2046FFF7BEFF0028F9D146
:102B00001AE0A06800F543704FF0FF324FF0FF333A
:102B100004F07AFD2B461B4A012120460FF0C1FA32
:102B2000A06800F5437004F0EFFDE3E79847A06864
:102B300000F5437004F0E8FDA06800F52F704FF039
:102B4000FF324FF0FF33032105F08AFD05460028D0
:102B5000D7D1A06800F543704FF0FF324FF0FF333C
:102B600004F052FD084A022120460EF0A3FD074A58
:102B7000002120460EF09EFD606803685B69002B13
:102B8000D4D1D4E70873010891160108E3190108AC
:102B900010B504460C4A08210EF07CFF0B4A0821B0
:102BA00020460EF077FF0A4A082120460EF072FFF9
:102BB000084A082120460EF06DFF074A00212046F2
:102BC0000FF02CFB002010BD20730108607301087A
:102BD000C073010814740108B0740108F8B5054603
:102BE00017461E460B46294A08210EF053FF0024C3
:102BF0000BE0274A082128460EF04CFF0CE0254A3E
:102C0000082128460EF046FF01340F2C0DDC002C65
:102C100002DD14F0070FECD0B442F0D23B5D1E4A47
:102C2000082128460EF036FFEEE71C4A0821284608
:102C30000EF030FF00240BE0154A082128460EF064
:102C400029FF0CE0164A082128460EF023FF013424
:102C50000F2C14DC002C02DD14F0070FECD0B44272
:102C600007D23B5D0F4AD25C12F0970FEAD12E23B8
:102C7000E8E7074A082128460EF00CFFE7E70A4A72
:102C8000082128460EF006FFF8BD00BFC8740108F1
:102C9000D4740108D8740108D0740108DC740108E8
:102CA0002C7501084DDC0108E07401082DE9F041A4
:102CB0000646884617464FF44A7200218068FDF7A1
:102CC0007DFD30460EF01CFDB06800F5437010F03D
:102CD0003AFD002517E0B0682C0104F51E7420446D
:102CE000043011F0ECF9B068031905EB850C4FEADC
:102CF0008C0C0CF52E7C604404330022012104303E
:102D000011F0AAF90135032DE5DDB36900241C603B
:102D1000012130460EF044FCB36850225A87B36854
:102D200018221A87316830460EF0C2FE64F382071B
:102D3000B368C3F87472706803681C683346044A49
:102D40004146A04710B9B36801221A75BDE8F08169
:102D5000E716010870B588B004468068D0F82003F3
:102D600010BB1D462046FFF7A1FF064610B13046B6
:102D700008B070BD606AA16A00220023CDE9062375
:102D8000002304930E2303930C9B0293019500945C
:102D9000074B4FF4006210F018FDA368C3F820033E
:102DA000216A04F017FDE2E76FF07706DFE700BF66
:102DB000D52A000810B5044613460A4601460548C0
:102DC00003F006FC23691B7903B910BD20460EF001
:102DD000C4FEFAE7731B010870B50C46037873B1A3
:102DE0002388C21812F8012C11498A5C12F0080FCE
:102DF00006D0013B9BB22380002BF1D1037070BD44
:102E00000022C25413461D4601339BB24119425D54
:102E1000074EB25C12F0080FF5D1002DEFD02288DA
:102E2000521B013211F0E7FE23885B1B2380E6E78B
:102E30004DDC01082DE9F8430746056800269CE0B3
:102E40006C1C4DB12846FDF79BF982B221462846FD
:102E500011F0D1FE254690E00022F7E76E1C4DB13F
:102E60002846FDF78DF982B23146284611F0C3FE9F
:102E7000264682E00022F7E76C1C4DB12846FDF79C
:102E80007FF982B22146284611F0B5FE002674E093
:102E90000022F7E76C1C2846FDF772F982B2214642
:102EA000284611F0A8FE254667E04FF000080224EE
:102EB000042C0CD82B5DA3F13002D2B2072A06D81D
:102EC00042EAC8025FFA82F80134E4B2F0E7022C69
:102ED0006DD904F1FF39A94465B12846FDF750F9D1
:102EE00082B2023C121B4946284611F084FE05F8C6
:102EF000018B42E00022F4E7A3F16102D2B2052A7D
:102F000014D8573BDBB243EA08135FFA83F8013465
:102F1000E4B2032C16D82B5DA3F13002D2B2092AF9
:102F2000EAD842EA08125FFA82F8F0E7A3F1410218
:102F3000D2B2052A06D8373BDBB243EA08135FFA60
:102F400083F8E4E7022C17D904F1FF39A94465B1ED
:102F50002846FDF715F982B2023C121B4946284665
:102F600011F049FE05F8018B07E00022F4E7154B4C
:102F70001B5D13F0080F20D101352C78ECB146B958
:102F8000272C3FF46BAF5C2C3FF45AAF222C3FF45C
:102F900065AFA6423FF470AF002EE8D05C2CEBD1B9
:102FA0006B789E423FF476AF302B3FF47EAF782BA8
:102FB000E2D14FF000080224ABE73D603046BDE8A7
:102FC000F88300BF4DDC010870B582B004460E46A0
:102FD00001921D460020206007E0531C019300234E
:102FE000137002E001A8FFF725FF019A117869B17B
:102FF000074B5B5C13F0080FEFD123685A1C22606B
:10300000019A46F823202368AB42EBD102B070BD91
:103010004DDC01088C46034688B110B51446806823
:1030200020B3154B984214D3144B984211D2036825
:103030001146604698472068C0B1204616E0104906
:10304000104A521ABCEB920F01D251F82C3018469C
:1030500070470D4B984202D30C4B984207D300683F
:103060000CEB8C0C00EB8C0003681BB110BD0CF159
:10307000010CF5E71846F9E7C05A0108C05A0108E3
:10308000745A0108AC5A0108AC5A0108C05A010828
:10309000002835D0F8B50646FDF772F885B275B34D
:1030A0000024274606E00137BFB2013292B20EE09B
:1030B0000134A4B2AC466B1E9C4220DA2046335D3C
:1030C000104AD35C13F0080FF2D0621C92B2954202
:1030D000EED906EB020EB35C0A49CB5C13F0080F85
:1030E000E1D1002FE4D00130ACEB02020132714695
:1030F000304411F080FDEF1BBDB20027D8E7F8BDCA
:10310000704700BF4DDC010870B4844600200646BD
:1031100005E0002B0DDD15E00126013080B213FB28
:1031200000F411FA84F4A4B20CB9002B0ADB944227
:10313000EFD01CF80440044D2C5D14F0070FEBD1C8
:10314000002EEAD070BC70474DDC010808B58368DA
:10315000D3F8743213F0200F00D108BD0249406942
:103160000EF02CFEF9E700BFDC5A010808B58368B1
:10317000D3F8743213F0200F00D108BD0249406922
:103180000EF01CFEF9E700BFE05A010808B583689D
:10319000D3F8743213F0200F00D108BD0249406902
:1031A0000EF00CFEF9E700BFE85A0108082915D80F
:1031B00014D008B5836893F83F208A4207D083F87B
:1031C0003F108368D3F8743213F0200F00D108BD8C
:1031D0000A46034940690EF0F1FDF8E7704700BF69
:1031E0001C75010808B50A1E09DD4123002A0ADB07
:1031F0008168D1F8741211F0200F06D108BD002AA1
:10320000FCD04223F2E75242F2E7024940690EF055
:10321000D5FDF3E72875010808B50A1E09DD43232B
:10322000002A0ADB8168D1F8741211F0200F06D150
:1032300008BD002AFCD04423F2E75242F2E70249DB
:1032400040690EF0BBFDF3E72875010810B5044690
:103250000A468368B3F85210481CA3F852000B4486
:1032600083F85620A368D3F8741211F0020F0DD022
:10327000D3F8743213F0040F00D02A220649606993
:103280000EF09CFD20460EF0FBFD00B910BD034979
:1032900060690EF093FDF9E72C7501084084010880
:1032A00010B504460EF0ECFD18B920460EF094FD62
:1032B00018B1024960690EF081FD10BD408401081B
:1032C000F8B505468468B4F85020B4F8521004F1FB
:1032D00030000EF097FCA78EE68E28460EF07CFD9F
:1032E00070B9B74211D0E18EA38EC91A2846FFF7F4
:1032F00079FF218E638EC91A2846FFF78DFFF8BD2E
:10330000054968690EF05AFDEBE7218E638EC91AF4
:103310002846FFF781FFF2E7408401082DE9F843D2
:103320000546846814F1560006D0FCF729FF86B2E2
:1033300094F83C7000231BE00026F9E71C4422446B
:1033400092F856904FF0000882F85680AA685033E1
:103350001A4406320F4968690EF030FDAB68234409
:1033600083F85690AB685B8FDB1BF61A2346474603
:10337000AA68548FE41BB442E0DB002E01DCBDE8F8
:10338000F88350331A440632034968690EF016FD7B
:10339000F5E700BFF872010824720108082921D856
:1033A00008B5836893F83E208A4209D083F83E101E
:1033B00008290CD08368D3F8743213F0200F00D1A1
:1033C00008BD0A46084940690EF0F8FCF8E7836832
:1033D000D3F8743213F0200FF2D0044940690EF094
:1033E000EDFCEDE7704700BF30750108EC5A0108AD
:1033F0008168B1F85020002A46D070B50546B1F872
:103400005230002B3FD04F330B44063301F1560CA2
:10341000002402E00134A4B2013B634502D31978D1
:103420002029F7D0634506D31978202903D0013429
:10343000A4B2013BF6E75E1C611C121B1944304626
:1034400011F0D9FBAA68B2F850301B1BA2F850301B
:10345000AB68B3F850201344002283F85620614231
:1034600009B228460EF027FD2846FFF76FFE3346C7
:10347000064A082128460EF014FE2846FFF776FE7D
:103480002846FFF783FE70BD704700BF2472010815
:10349000F8B504460E4617466AB9A068D0F87432EB
:1034A00013F0040F27D0B0F85230503318440630D0
:1034B000FCF766FE07E0FFF759FEEEE71349606987
:1034C0000EF07CFC2846451E0028F7D1A368B3F80F
:1034D0005020A3F8522020460EF07EFC28B107B100
:1034E0001EB10B4960690EF069FC714209B22046B9
:1034F0000EF0E1FCF8BDB0F852305033034406330F
:10350000044A082120460EF0CCFDDFE7946901084B
:10351000408401082472010808B58368024A022128
:103520000EF0BFFD08BD00BF24720108002979D04C
:103530002DE9F843804616460D460BB9002404E0F9
:103540001146FFF769FEF9E701342B5D364AD35C7B
:1035500013F0080FF8D156E0D8F814000EF0FDFA79
:103560003A46291940460EF047FD09F101042F495A
:10357000D8F814000EF044FE31464046FFF74CFEEA
:103580002919D8F814000EF03BFE2849D8F8140089
:103590000EF036FEBDE8F88300278742F0D204EB38
:1035A000070915F809300A2BD6D00137F5E79A1923
:1035B00096450DD90133E218A95C1B4A12F801C0E7
:1035C0001CF0080FF3D00A2901D01F46EFE71F4671
:1035D000D8F814000EF0C1FA3A46291940460EF008
:1035E0000BFD3C4400E001342B5D0F4AD35C13F02B
:1035F000080FF8D10D49D8F814000EF001FE31463D
:103600004046FFF709FE2846FCF7BAFD80B2001BD2
:10361000D8F80830B3F83AE0AEEB06078742BBD2E1
:103620000023C8E7704700BF4DDC01084084010853
:1036300021B370B582B004461D46531D9EB20B46A1
:10364000097809B902B070BD019300920C4B0D4A84
:1036500008210EF026FD65B1094B0B4A08212046D2
:103660000EF01FFD0023324629462046FFF75EFF7D
:10367000E8E7064960690EF0C3FDE3E7704700BF65
:10368000647501083C75010844750108408401080F
:10369000F0B583B005460E460F68AFB13846FCF76B
:1036A0006FFD84B20334A4B2084B00933B46084A32
:1036B000082128460EF0F5FC0023224671682846B2
:1036C000FFF734FF03B0F0BD0024EBE7607501089D
:1036D0004C75010810B504460749FCF7C1FD30B12F
:1036E00006492046FCF7BCFD18B1002010BD0120A2
:1036F000FCE70120FAE700BF54750108587501087E
:1037000010B504468368D3F8743213F0200F07D144
:10371000A368D3F8743213F0200F06D1002010BD37
:10372000044940690EF0B9FDF2E7034960690EF003
:10373000B4FDF3E7F45A0108FC5A010808B58368A0
:10374000D3F8743213F0200F00D108BD024940694C
:103750000EF0A3FDF9E700BF045B010808B583681C
:10376000D3F8743213F0200F00D108BD024940692C
:103770000EF093FDF9E700BF085B010810B50446A1
:103780008368D3F8743213F0200F07D1A368502256
:103790005A87A36818221A87002010BD0249406981
:1037A0000EF07BFDF2E700BF0C5B010808B58369F2
:1037B0001B68034A08210EF06DF9002008BD00BF08
:1037C0006875010800B583B002290ED08368D3F86C
:1037D000743213F0020F14D00B4B0C4A08210EF078
:1037E00059F9002003B05DF804FB53680193084BBE
:1037F00000931368074A01210EF04CF96FF0150091
:10380000F0E7054BE9E700BF78750108A4750108EA
:103810008C750108807501087C75010870B582B04F
:1038200006460D4A08210EF035F90C4C00230CE039
:103830005D1CADB2A268216A01910092084A08217C
:1038400030460EF027F92C342B46064A9442EFD32B
:10385000002002B070BD00BFB8750108485A0108C9
:10386000D0750108745A010808B502490EF020F914
:10387000002008BD186A010870B584B00446002510
:103880000BE06E1CA36803F5AB7300932B460C4A48
:10389000082120460EF0FEF83546A2680DF10E0311
:1038A00002F5AB720121E0680EF0F1FDBDF80E30BB
:1038B000002BE6D1A368002083F8560104B070BD48
:1038C000E47501082DE9F04383B004460E46154621
:1038D00000278DF803700F80178080684FF4807286
:1038E000394600F5AB70FCF769FF484960690EF096
:1038F000D4FC60690EF031F9B846B8F57A7F15D37B
:103900006FF073007BE04FF47A700FF091FE08F1D6
:1039100001081FFA88F8F0E7522B1DD0A2683A443C
:1039200082F856310137BFB2092F62D86068036848
:10393000D3F8109001AB01220DF10301C847019BA0
:10394000002BE0D09DF803301B2BE5D0A26892F845
:1039500056211B2AE0D0E9E7A3683B44002283F804
:103960005621A36893F857215B2A15D10222A36838
:10397000134493F856113B2914D02B8803EB83038F
:103980005B009BB2013292B20B44303B2B80FF2A8A
:10399000EDD96FF0790032E0002283F856216FF004
:1039A00004002CE0013292B2FF2A2BD8A368134402
:1039B00093F8561171B1338803EB83035B009BB21C
:1039C000013292B20B44303B3380FF2AEED96FF0C4
:1039D000790014E03388FA2B01D9FA2333802B883D
:1039E000FA2B01D9FA232B80A368002083F8560113
:1039F00005E0A368002283F856216FF00B0003B0A6
:103A0000BDE8F0836FF00400F9E700BF2C760108F1
:103A100010B582B00446012904D10EF0E2FC68B969
:103A200002B010BD536801930B4B009313680B4A0F
:103A300001210EF02FF86FF01500F1E7A368502276
:103A40005A87A36818221A87054A032120460EF0D8
:103A500021F86FF00700E3E78C7501088075010815
:103A6000F075010810B504460EF067F80346034AE6
:103A7000082120460EF00EF8002010BD1862010843
:103A80002DE9F04786B081460F4616464FF00008F4
:103A9000414602250DE033461C4A032148460EF0FC
:103AA00000FBB8F1000F27D1284606B0BDE8F0872B
:103AB00021464C1C01AA3846FFF7ACFA8246002882
:103AC000EFD00022DAF8001030460FF002FA00289A
:103AD000EED1D9F808003346DAF8002000F154019D
:103AE00000F5AB700EF07DFD05460128D3D000280F
:103AF000D7D108F10108DBE7D9F80800324600F118
:103B0000540100F5AB700EF099F8CDE7F87D01088F
:103B100038B5044610F030FE064DA446BCE80F0050
:103B20000FC5BCE80F000FC59CE8030085E8030043
:103B3000002038BD240F002047F6FF739A427DD045
:103B400009297DD870B5414B13F801E0BEF1030F90
:103B500078D83F4B03EBCE0191F802C0604613F8D2
:103B60003E30012B26D03A4B03EBCE035C68002C91
:103B70006AD0B4F90030934204DBB4F902309342C6
:103B800000DC1346A288FF2A2CD000212826C82258
:103B90001D46D21A92FBF6F20A4412B22C4B03EBEA
:103BA000CE0393F801E0964501DD002A2FDA0EF1ED
:103BB000FF322CE0CB78A3EB0C0300249C420ED206
:103BC000191BA3EB5101224800EBCE00406830F9ED
:103BD0001100904201DC0C46F0E74B1EEEE7634417
:103BE000D8B230E0B4F90620B4F908600121CFE77B
:103BF0005C331849A1FB03139B09013212B216462C
:103C000096450FDD04EBC201898899420AD304EB83
:103C1000C2018B68B1F9061001FB0533002BE7DA0E
:103C20000023E5E7013E04EBC604A2889A4200D3D4
:103C30001A46624500D31046C0B204E0FF20704728
:103C400000207047002070BD0020FCE74C7E01087A
:103C5000240F0020D34D621009296FD83A4B5B5CCA
:103C6000032B6DD8394911F8331001292AD010B42B
:103C7000364901EBC3014C68002C63D0201D334949
:103C800001EBC3018978914234D2304901EBC30181
:103C9000C978914233D92D4901EBC30393F801C090
:103CA0000CF1FF3C5FFA8CFCA388FF2B2AD0002389
:103CB000634529D2591C30F83110914224D3013385
:103CC000DBB2F5E7214901EBC301C978914200D28B
:103CD0000A461E4800EBC3008078121AD2B2091AB5
:103CE0008A4200DD0022194901EBC3035B6833F906
:103CF00012007047B4F902005DF8044B7047B4F944
:103D00000000F9E70123D3E74FF47A7101FB02F2D7
:103D100000EBC3004368D31AB0F9022002EBD27162
:103D200003EB610393FBF2F3B4F900009842E3DB89
:103D3000B4F902009842DFDC18B2DDE704487047AE
:103D4000034870470248D7E74C7E0108240F002043
:103D50000080FFFF08B50348FFF7DAFE012010F0EE
:103D60002EFD08BD587E010830B583B0044610F022
:103D700028FD08B103B030BD6946204610F0FEFCB6
:103D800000B1FEE79DF80030124A12789342F1D05C
:103D90000C2B06D164250F49204610F0DCFC28B11D
:103DA000FEE7204609F05EF90546F4E7294620467D
:103DB00010F0E6FC00B1FEE7064B1B780A2BD9D1C8
:103DC0006946204610F0DAFC9DF80020014B1A707D
:103DD000D0E700BFC800002070B58AB004460D4689
:103DE000282200216846FCF7E9FC032300934FF4E6
:103DF0001653ADF8063002228DF8082001238DF805
:103E000009308DF80A208DF80B30642303934FF4AA
:103E10007A7306936946204609F0D4F90646C0B97C
:103E20000C3D102D7CD8DFE805F0091B21272D3330
:103E3000393F454B51575D63696F750039492046DD
:103E400010F00AFD06462EB9FF21204610F03DFD78
:103E5000064616B1204610F018FD30460AB070BD77
:103E60003149204610F0F8FC0646ECE72F49204681
:103E700010F0F2FC0646E6E72D49204610F0ECFC77
:103E80000646E0E72B49204610F0E6FC0646DAE756
:103E90002949204610F0E0FC0646D4E72749204691
:103EA00010F0DAFC0646CEE72549204610F0D4FC97
:103EB0000646C8E72349204610F0CEFC0646C2E776
:103EC0002149204610F0C8FC0646BCE71F492046A1
:103ED00010F0C2FC0646B6E71D49204610F0BCFCB7
:103EE0000646B0E71B49204610F0B6FC0646AAE796
:103EF0001949204610F0B0FC0646A4E717492046B1
:103F000010F0AAFC06469EE71549204610F0A4FCD6
:103F1000064698E71349204610F09EFC064692E7B5
:103F2000012697E7108601081085010850860108D0
:103F3000F0850108B08501085085010890850108C9
:103F400030850108D0850108708501083086010898
:103F5000F0840108D0840108B0840108908401082D
:103F60007084010850840108074B4FF480325A6670
:103F700003F5E6239B69C3F38512827003F03F02C9
:103F800042701B0B0370704700900050014B986CFF
:103F9000D96C70470080E00F024B4FF480321A67F3
:103FA000704700BF00900050324B984252D029D841
:103FB000314B984248D009D9304B984247D0304BCA
:103FC00098421DD12F4BD3F8800070472E4B98425A
:103FD00037D005D92D4B984210D12A4B186F704716
:103FE0002B4B984202D02B4B984202D1254B986D17
:103FF0007047294B9842F9D0002070470020704745
:1040000000207047254B98422CD00CD9244B984265
:104010002CD003F5740303F5105398420FD1194BBC
:10402000D3F8980070471F4B984217D01E4B984208
:1040300003D1144BD3F88C00704700207047002048
:104040007047104B586E70470E4B586F70470D4BB2
:10405000986F70470B4BD3F884007047094BD3F827
:1040600088007047074BD3F890007047054BD3F892
:10407000940070470048E8010024F400C0EA2101E0
:1040800080BA8C010080E00FC0CF6A00405DC6009E
:1040900080841E0000093D0040420F00007E560350
:1040A0000090D00380D54302006CDC0238B5054691
:1040B0000C46174BD3F8200100F00700062823D840
:1040C000DFE800F0040A0E16121A1E00012305B1E3
:1040D000286004B1236038BD01F0A2FC0523F6E797
:1040E00001F0DAFC0323F2E701F0F2FC0723EEE72C
:1040F00001F0EAFC0223EAE701F092FC0623E6E77E
:1041000001F0CAFC0423E2E700231846DFE700BF02
:104110000080005038B505460C46164BD3F82831C0
:1041200003F00703013B052B20D8DFE803F003135E
:104130001B0F0B1701F074FC052305B1286004B1B7
:10414000236038BD01F06CFC0623F6E701F0C0FCEB
:104150000723F2E701F0A0FC0323EEE701F09CFC4B
:104160000423EAE701F0B0FC0223E6E70023184647
:10417000E3E700BF0080005070B582B006460D46F0
:1041800000230193104BD3F8804104F00304022C68
:1041900016D0032C0FD0012C07D000240EB1019BA8
:1041A000336005B12C6002B070BD002101A8FFF79B
:1041B0007DFF0F24F2E701F08BFC01900724EDE76F
:1041C00001F082FC0190E9E70080005038B5054617
:1041D0000C460C4BD3F8903203F00303012B05D0AF
:1041E000022B07D101F074FC072305E001F06CFC01
:1041F000022301E00023184605B1286004B12360C2
:1042000038BD00BF0080005030B583B005460C4675
:1042100000230193154BD3F8203203F00703042B3E
:1042200021D8DFE803F0030B11161B0001230DB1A9
:10423000019A2A6004B1236003B030BD002101A8B7
:10424000FFF768FF1123F2E701F042FC019007231A
:10425000EDE70EF0D3FC01900A23E8E701F07CFCC7
:1042600001900923E3E70023E1E700BF008000504D
:1042700038B505460C46104BD3F8400100F003005A
:10428000032815D8DFE800F002080C10012305B15F
:10429000286004B1236038BD0EF0B0FC0A23F6E7B5
:1042A00001F05AFC0923F2E70EF0ABFC0B23EEE71A
:1042B00000231846EBE700BF0080005030B583B004
:1042C00005460C4600230193144BD3F8603203F0EB
:1042D0000703013B032B1FD8DFE803F0020E19147C
:1042E000002101A8FFF7E2FE0F230DB1019A2A6019
:1042F00004B1236003B030BD002101A8FFF7B8FF6F
:104300001023F2E701F0E4FB01900723EDE701F051
:10431000DBFB01900223E8E70023E6E70080005082
:1043200030B583B005460C46002301930C4BD3F8FF
:10433000703203F00303012B09D0022B0DD114239B
:104340000DB1019A2A6004B1236003B030BD002191
:1043500001A8FFF78DFF1023F2E70023F0E700BF6D
:104360000080005038B505460C46134BD3F80002C8
:1043700000F0070004281BD8DFE800F003090D1146
:104380001500012305B1286004B1236038BD0EF08B
:1043900035FC0A23F6E701F0DFFB0923F2E70EF014
:1043A00030FC0B23EEE701F061FB800A0E23E9E706
:1043B00000231846E6E700BF0080005038B50546E8
:1043C0000C46134BD3F8080200F0070004281BD852
:1043D000DFE800F003090D111500012305B1286085
:1043E00004B1236038BD0EF009FC0A23F6E701F0A2
:1043F000B3FB0923F2E70EF004FC0B23EEE701F018
:1044000035FB800A0E23E9E700231846E6E700BFE4
:104410000080005038B505460C46104BD3F84002DA
:1044200000F00300032815D8DFE800F002080C10A4
:10443000012305B1286004B1236038BD0EF0DEFB16
:104440000A23F6E701F088FB0923F2E70EF0D9FB17
:104450000B23EEE700231846EBE700BF0080005077
:1044600038B505460C460F4BD3F8503203F0030322
:10447000022B12D0032B08D0012B0AD000231846A0
:1044800005B1286004B1236038BD0EF0BAFB0B23E0
:10449000F6E70EF0B3FB0A23F2E701F05DFB092318
:1044A000EEE700BF0080005038B505460C46104BC3
:1044B000D3F8600100F00300032815D8DFE800F00E
:1044C00002080C10012305B1286004B1236038BD37
:1044D0000EF094FB0A23F6E701F03EFB0923F2E716
:1044E0000EF08FFB0B23EEE700231846EBE700BF2F
:1044F0000080005038B505460C46104BD3F800013B
:1045000000F00300032815D8DFE800F002080C10C3
:10451000012305B1286004B1236038BD01F0BCFA65
:104520000323F6E701F018FB0923F2E70EF064FB22
:104530000823EEE700231846EBE700BF0080005099
:10454000B0F5207F20D00ED8B0F5007F16D020D84F
:1045500010B1B0F5C07F04D10F4B186FC0F303301A
:1045600018E0002016E0B0F5607F05D10A4BD3F8C3
:104570008000C0F301100DE000200BE0064BD3F8E3
:104580009000C0F3046005E0034B186FC0F3802077
:1045900000E00020013070470080005038B505462B
:1045A0000C46174B4FF480329A660020FFF7C8FF85
:1045B00005FB00F0134BDA6902F4803241F67131E9
:1045C000D9635B6823F440136CB90F49884207D85C
:1045D00000210B430B494B600AB10022CA6338BD6E
:1045E0004FF48011F5E7002C07DD0849884201D817
:1045F0000021EEE74FF48011EBE74FF44011E8E7BC
:104600000090005000000350005A6202002D31015A
:10461000430905D0012B0DD0022B0DD0002200E064
:10462000002200F01F0049B102F5805201238340AF
:1046300013607047034AF4E7034AF2E702F50052B9
:10464000F4E700BF648000506880005008B5802007
:104650000EF0ACF8034B984203D8034B4FF4803272
:104660001A6708BD005A620200A0005000B583B06E
:1046700000230193B0F5807F00F0AF8011D9B0F531
:10468000086F00F0B48044D9B0F5286F00F0C38003
:1046900069D9B0F5306F79D101A90020FFF796FDF7
:1046A00075E0802873D8242871D324385C286ED80C
:1046B000DFE800F04C4C4C4C4C6D446D98546D6DE3
:1046C0006D6D6D6D6D6D6D6D6D986D6D6D39A76DE9
:1046D0006D6D6D6D6D6D6D6D6D6D6D6DAC4C6D6DEC
:1046E0006D676D6D5FB1A277776D6D6D6D6D6D6D81
:1046F0006D6D6D6D6D6D6D6D6D6D6D6D6D6D6D6DEA
:104700006D6D6D6D6D6D6D6D6D6D6D6D6D6D6D6DD9
:104710007C00B0F5C06F65D00AD9B0F5E06F70D0FD
:10472000B0F5F06F17D101A90020FFF7BDFE2EE014
:10473000B0F5A06F60D0B0F5B06F04D101A9002032
:10474000FFF71AFD23E0B0F5806F20D101A900200A
:10475000FFF7ACFC1BE0B0F5D06F18D101A9002029
:10476000FFF700FE13E0B0F5186F4FD0B0F5206FE3
:1047700004D101A90020FFF7A1FD08E0B0F5106FFA
:1047800005D101A90020FFF719FE00E003D201982E
:1047900003B05DF804FBB0F5386F23D0B0F5406F7F
:1047A000F5D101A90020FFF7B5FCF0E71C4B1B6F0A
:1047B00003F00703013B032BE9D8DFE803F00B020A
:1047C000050805230193E2E703230193DFE70823AC
:1047D0000193DCE702230193D9E701A900200DF042
:1047E000B2FFD4E701A90020FFF742FDCFE701A9FE
:1047F0000020FFF77FFECAE701A90020FFF704FDB4
:10480000C5E701A90020FFF705FEC0E701A90020C8
:10481000FFF726FEBBE701A90020FFF781FDB6E701
:104820000080005038B504468020FFF71FFF0328A2
:1048300000F0B580604B4FF480125A665F4B45F62E
:104840000E02C3F8802003F580524FF0A061916200
:1048500003F500534FF480329A62584B9B6D13F46A
:10486000803FFAD1554B9B6D13F0804FFAD12268EF
:1048700063681B0543EA0263227B43EA0243627BCF
:1048800043EA0233A27B43EA8213E27B13434B4D9C
:104890002B61AB6903F00043226943EA82636269DA
:1048A00043EA0263227E43EA0243627E43EA022332
:1048B000A27E1343AB614FF400624FF44061404865
:1048C0000DF05FFF2B6A23F00F03E269002A46D147
:1048D00011460B43E17E43EA81031A43374B1A62C8
:1048E000E369002B3DD1354A916A364B0B4094F871
:1048F000201043EA411394F8211043EA011394F87D
:10490000241043EAC10343F4803393622B4B9A6D26
:104910002D4B9343FAD1294A02F580514FF0807311
:104920008B62136923F47003A06843EA0053136198
:104930004FF000438B6194F822301BB9234B4FF0AA
:1049400080729A6294F8233013BB204B4FF480326C
:104950009A621A4B9B6D13F0804FFAD118E0082130
:10496000B7E7022B1CD0154A916A164B0B4094F8FE
:10497000201043EA411394F8221043EA016394F8AB
:10498000241043EAC10394F8231043EA01439362DD
:1049900094F825301BB1094B0D4AC3F8802038BD6F
:1049A000064B00221A619A614FF408524FF47F417E
:1049B00008480DF0E6FED6E7009000500040005A8F
:1049C0003840005AC7FFFEFE030001000060005A95
:1049D000F1A7FFFF3440005A014B93F900007047E4
:1049E0002802002010B443784F2B28BF4F231A46CB
:1049F0001C4B4FF40001596603F5B8334FF4D15105
:104A0000596203F5805102244C6003F500530121E3
:104A10005960154B1B6913F4803FFAD1037842EAC1
:104A20000323114A5361416883681B0143EA012350
:104A3000017B43EA4103417B0B439360817BC37B52
:104A40001B0143EA4113017C43EA4103417C0B43D0
:104A50005360837C1BB113466FF4D1525A625DF8E8
:104A6000044B70470090005000000250014B18802A
:104A7000704700BFDC010020B0F5207F48D02DD862
:104A8000B0F5007F39D04CD810B1B0F5C07F24D13B
:104A900010B54C1E0DF083FE0EF067F8FFF77CFAA0
:104AA000204A136F23F4704343EA0433136700F082
:104AB000DDFF1D4BD3F8843013F0100FF9D11A4BE2
:104AC000D3F88410C1F38111C1F102010EF042F854
:104AD00000F02CF8FFF7BAFD10BD7047B0F5607F0D
:104AE0000AD101390F4AD2F8803023F0300343EA6B
:104AF0000113C2F88030704770470139094AD2F873
:104B0000903023F0F85343EA0163C2F890307047C5
:104B10000139044A136F23F4806343EA8123136746
:104B200070477047008000500040005008B54FF4B7
:104B3000C0700DF03BFE054B984205D902214FF4A1
:104B40002070FFF799FF08BD0121F8E780F0FA0215
:104B500010B5044600F08AFF0C4BD3F8843013F0F4
:104B6000100FF9D1094BD3F88410C1F38111C1F1B1
:104B700002010DF0EFFF0121002000F0E3FC14B969
:104B8000FFF764FD10BDFFF7D1FFF9E700400050CB
:104B900070B50C46B0F5807F00F093811FD9B0F559
:104BA000086F00F00E8240F28380B0F5286F00F0AD
:104BB0009D8240F2D080B0F5306F40F0F78002293E
:104BC00000F0A682072940F0A5820221864AD2F889
:104BD000903223F003030B43C2F89032E7E08028C1
:104BE00000F2E5802428C0F0E28024385C2800F23E
:104BF000DE80DFE810F09800980098009800980098
:104C0000DC008300DC00A601A400DC00DC00DC008A
:104C1000DC00DC00DC00DC00DC00DC00DC00DC00B4
:104C2000A601DC00DC00DC0069002F02DC00DC00F7
:104C3000DC00DC00DC00DC00DC00DC00DC00DC0094
:104C4000DC00DC00DC0045029800DC00DC00DC005D
:104C5000CF00DC00DC00B7007B02FC01E400E400D4
:104C6000DC00DC00DC00DC00DC00DC00DC00DC0064
:104C7000DC00DC00DC00DC00DC00DC00DC00DC0054
:104C8000DC00DC00DC00DC00DC00DC00DC00DC0044
:104C9000DC00DC00DC00DC00DC00DC00DC00DC0034
:104CA000DC00DC00DC00DC00DC00DC00DC00F00010
:104CB000B0F5C06F00F0458119D9B0F5E06F00F094
:104CC000C981B0F5F06F37D10A2C00F052810B2C5E
:104CD00000F05181092C00F04A810021424AD2F8AB
:104CE000603123F003030B43C2F860315FE0B0F59D
:104CF000A06F00F07C81B0F5B06F11D1072C00F0EF
:104D0000C6800F2C00F0C580022C00D00024364A4B
:104D1000D2F8803123F003032343C2F8803146E008
:104D2000B0F5806F43D1023C052C00F2B480DFE87F
:104D300004F0B8B4BCBEBAB6B0F5D06F37D1093CF8
:104D4000052C00F21A81DFE814F022012801240169
:104D5000180118012601B0F5186F00F09181B0F527
:104D6000206F14D1023C0E2C00F2AE81DFE814F06B
:104D7000BC01AC01AC01AC01AC01B601AC01AC01B1
:104D8000AC01AC01AC01AC01AC01B801BA01B0F5A9
:104D9000106F0CD1093C052C00F20181DFE814F002
:104DA00009010F010B01FF00FF000D0100D270BDD2
:104DB000B0F5386F00F0C580B0F5406FF7D1023C18
:104DC000052C00F23181DFE814F03501370139019B
:104DD0003B01310133018B1E062B07D8DFE803F0BE
:104DE000513F065406064E000080005000252E4616
:104DF0000121022000F060FB0DF0D1FC0DF0B5FEAA
:104E0000FFF7CAF8A94A136F23F007033343136768
:104E100000F02CFEA64BD3F8843013F0100FF9D11C
:104E2000A34BD3F88410C1F38111C1F102010DF03D
:104E300091FE0121002000F085FBFFF777FEFFF7D0
:104E400005FC002DB3D1032CB1D19A4B4FF4803225
:104E50009A62994B9B6D13F0804FFAD1A7E7974B5D
:104E60004FF480125A66944B9D6AC5F3006503F5B2
:104E700080534FF480329A620E46B9E7002504262B
:104E8000B6E700250126B3E700250226B0E7032494
:104E90003DE701243BE700210AE0022108E004216C
:104EA00006E0032104E0052102E0062100E00121E3
:104EB0007E4AD2F8203123F007030B43C2F8203199
:104EC00075E70C2923D01ED8A1F10904022C3FF666
:104ED0006EAF764B596E03F580534FF480325A66AD
:104EE000774A536A43F00103536211F4803F03D1C0
:104EF000744B4FF480325A664FF0E022136923F06E
:104F00000403136153E710297FF451AFE1E7674BC6
:104F1000596E03F580534FF480325A66684A536ADB
:104F200023F00103536211F4803F03D1654B4FF42A
:104F300080325A664FF0E022136943F00403136194
:104F400035E70A2C0FD00B2C0FD0092C09D00021EB
:104F5000564AD2F8403123F003030B43C2F84031E4
:104F600025E70221F4E70121F2E70321F0E702211E
:104F7000B4E60121B2E60321B0E600214B4AD2F8A3
:104F8000003223F007030B43C2F800320FE702217F
:104F9000F4E70321F2E70421F0E70121EEE7002125
:104FA000424AD2F8083223F007030B43C2F8083212
:104FB000FDE60221F4E70321F2E70421F0E70121F5
:104FC000EEE708290FD009290FD0032909D00021C5
:104FD000364AD2F8003123F003030B43C2F8003104
:104FE000E5E60121F4E70321F2E70221F0E7073CBF
:104FF0000A2C07D8DFE804F010061412060606068D
:10500000060616000021294AD2F8203223F00703B1
:105010000B43C2F82032CAE60221F4E70321F2E78B
:105020000421F0E70121EEE700210AE0052108E074
:10503000042106E0032104E0022102E0062100E051
:1050400001211A4AD2F8283123F007030B43C2F892
:105050002831ACE60A2C0FD00B2C0FD0092C09D02C
:105060000021124AD2F8403223F003030B43C2F866
:1050700040329CE60221F4E70121F2E70321F0E748
:105080000A2C0FD00B2C0FD0092C09D00021074A75
:10509000D2F8503223F003030B43C2F8503286E6B5
:1050A0000221F4E70121F2E70321F0E7008000503C
:1050B000004000500060005A0040005A009000502C
:1050C00000C0075000A000500021134AD2F86032FF
:1050D00023F007030B43C2F8603268E60421F4E7CB
:1050E0000121F2E70221F0E70321EEE7102C0BD0BB
:1050F000142C0BD10221084AD2F8703223F003039A
:105100000B43C2F8703252E60121F4E70021F2E7C6
:1051100001215BE5002159E5008000502DE9F041B7
:105120000646844B4FF4C0225A6603F598335C68F8
:1051300004F0010403F5005301225A607E4B5B68C2
:1051400013F0020FFAD130687C4BD3F88430C3F3EC
:10515000001513F0100FF7D1784BD3F88430C3F358
:105160008113012B01D02B4606E0754B984200F2CB
:10517000D8802B4600E00133182B0AD81A01714958
:105180008A589042F7D301EB031252689042F2D84A
:1051900000E00023192B00F0C6806A4A02EB0313DB
:1051A000D3F80880D86848BB8020FFF75FFA05284D
:1051B0002BD00027644BDB6813F0060FFAD1624B4B
:1051C0009A68C3F808809B6883EA080313F4F8130D
:1051D0007DD1B188F28842EA01425749CA60B2687B
:1051E000032A31D0092A66D0082A37D15749D1F885
:1051F000002142F00302C1F800212FE0FEF7D4FEA7
:1052000000F07F0048EA0008CEE70DF0C8FA0DF084
:10521000ACFCFEF7C1FE4FF4C070FFF791F90546F4
:10522000012803D0022808D00027C3E702214FF449
:10523000C070FFF721FC0127BCE704214FF4C070C8
:10524000FFF71AFC0127B5E7A1F5A031D1F800213D
:1052500022F0030242F00102C1F80021327D002A4F
:1052600033D00422717D01B140231343327B43EAE2
:10527000420332691343304A9360306800F0D6FB32
:1052800000262D4B03F500520721116103F58053D1
:1052900001225A60284B1C6914F00704FAD08020C0
:1052A000FFF7E4F9052819D0002E3ED1012C3ED09D
:1052B0003046BDE8F0812549D1F8002122F00302F3
:1052C00042F00202C1F80021C8E71A46CAE71E4BA5
:1052D0009A600CB10126D4E70126E0E7DFB900F0BF
:1052E000C5FB054600F09CFB00F09AFB134BD3F87E
:1052F000843013F0100FF9D1104BD3F88410C1F3A0
:105300008111C1F1020128460DF024FCFFF70EFCCB
:10531000FFF79CF9C8E729464FF4C070FFF7ACFBD4
:10532000DDE70026C4E70026C2E70026C0E7012625
:10533000BEE700BF0090005000C001500040005088
:10534000005A6202B07F0108000001500080005046
:1053500000B583B0074B93E803000090ADF804104C
:10536000090C8DF80610684600F070F9002003B0B3
:105370005DF804FB145B010830B587B0EC461C4CAB
:105380000FCCACE80F0094E803008CE80300802009
:10539000FFF76CF9044605280DD001213120FFF7F5
:1053A00037F96846FFF7BAFE0546052C10D0E5B17F
:1053B000002007B030BD0DF0DFFB0E4A136F23F065
:1053C000070343F0010313670120FFF7C1FBE4E784
:1053D0000DF0D2FB074A136F23F0070343F00203DB
:1053E00013670120FFF7B4FBE1E70120E1E700BF0D
:1053F0001C5B01080080005010B582B0074A536F53
:1054000043F001035367002400948DF8044068467C
:1054100000F048F8204602B010BD00BF0040005028
:1054200010B58AB0EC461B4C0FCCACE80F000FCC8B
:10543000ACE80F0094E803008CE80300164BD3F8A7
:105440004C3113F4002F07D0144B1C884FF6FF7318
:105450009C4205D18C2403E00F4BD3F85041E4B2B9
:105460008DF81940FFF7B8FA241803D4FF2C02DD99
:10547000FF2400E000248DF81840094800F012FBDA
:105480006846FFF7CFF93220FFF7F0FA00200AB0A4
:1054900010BD00BF345B01080080E00F0001E00F89
:1054A000C0175302034AD36E23F0300301790B4334
:1054B000D366704700400050F8B50446204BD3F83F
:1054C000843013F0100FF9D11D4BD3F88430C3F39F
:1054D00081139C422DD000F0AFFA0646012C11D06A
:1054E0000DF056FB0546164F07F500534FF00072BE
:1054F0005A6620460DF064FB621E4FF480639340B1
:105500003B6706E001210DF025FBE9E70C4BD3F8E2
:1055100084300B4B5B6E13F0007F05D1084BD3F842
:10552000843013F0200FF1D028460DF035FB022C0B
:1055300000D0F8BD002130460DF00CFBF9E700BFAC
:105540000040005010B50C46034650B1094A12788D
:1055500012B1094A934208D921460220FFF7ACFF55
:1055600010BD00F069FA0346F0E721460120FFF77D
:10557000A3FFF5E74C0F0020005A620238B52F4B0D
:105580004FF000425A6603F50B235C6C04F00104F3
:105590004AF6CD321A64E8B9294B5B6B13F001036C
:1055A000FAD1274A556815F0010539D002F50052A5
:1055B000012151601A462249096B11F0010F04D1F3
:1055C00020498A4201D80132F5E71E498A422FD884
:1055D0001D4625E000231A4A126B12F0080F04D072
:1055E000184A934201D80133F5E7164A934221D86D
:1055F000134B03F500522021916203F580530122E1
:105600005A60002300E001330D4A926A12F0200F25
:1056100002D10C4A9342F6D90A4A93420CD800258B
:1056200014B1074B084A1A640FF093F8284638BDA6
:105630000725F5E70725F3E70725F1E70090005078
:10564000004009503F420F003254FFFF10B51A4B83
:105650004FF000425A6603F50B235C6C04F0010422
:105660004AF6CD321A6443785B0043F00103134AD3
:10567000D363134B5B6B13F00B0FFAD1104A5368D3
:1056800023F4F873817843EA01135360C1784379B6
:1056900043EA012393600179837943EA012313618B
:1056A0000078FFF76BFF14B1054B064A1A640FF040
:1056B00050F8012010BD00BF009000500040005085
:1056C000004009503254FFFF10B5134B5C6E03F5D8
:1056D00080534FF000425A6603F50B235A6C02F0D8
:1056E00001024AF6CD3119640C4B5B6B13F0800F4D
:1056F000FAD10A490B6A23F4F85343EA00230B62F8
:105700000AB1074A0A64002C03DB064B4FF0004243
:105710005A660FF01EF810BD00800050004009507E
:105720003254FFFF00A000502DE9F8430D46144607
:105730001E469DF820809DF82470072A29D89300E2
:1057400000FA03F20321994021480DF03AFA4FF094
:105750000009072C29D8A10005F003028A40032381
:1057600003FA01F11B480DF02CFA5EB31A4A01232B
:10577000A3401360B8F1000F26D0184A136001222D
:10578000A2401749C1F8202407B3164A1360BDE8A8
:10579000F883A2F108094FEA890300FA03F2032112
:1057A000994011480DF00DFAD3E74FEA890905F049
:1057B000030202FA09F2032101FA09F10B480DF084
:1057C00000FAD2E70A4AD2E70A4AD7E70A4ADDE7EF
:1057D00000C4035008C4035010D4035014D4035021
:1057E00000E0035024D4035004C403500CC40350FD
:1057F00010E4035014E4035024E40350F8B50446C5
:105800000D461E4617463AB1FBB101228A4000EB15
:10581000400109011D4B5A50072D1ED8A90004EB69
:1058200044031B0107FA01F20F2000FA01F11848A6
:1058300018440DF0C6F93FB9FEB10122AA4004EBAD
:1058400044042401114B1A51F8BD01228A4000EB97
:10585000400109010F4B5A50DEE7A5F108039B00F8
:1058600004EB440C4FEA0C1C07FA03F20F21994099
:10587000094860440DF0A5F9DDE70122AA4004EBD8
:1058800044042401034B1A51DEE700BF40D003500B
:1058900034C0035040E003503CC00350064B9842D4
:1058A00004D0C36D43F08003C3657047A3F5103384
:1058B000C3F8D411F5E700BF00C0055070B5054628
:1058C00016461C460846D1B1402C21D01CD80CB33A
:1058D000202C13D1082306FB03F2530803EB4013DB
:1058E000B3FBF2F3203B0C4A02EAC303AA6822F09E
:1058F0006002AA60AA681443AC60EB6170BD4FF40B
:1059000020700CF053FFDFE7602CF7D10423E2E7AF
:105910000623E0E71023DEE7F8FF7F0000F5805361
:1059200001225A6040F6AA63436100238360C36585
:1059300041F20502C2600361C361C36400F5005215
:10594000074991648365074B984204D000F50050E5
:10595000012343607047002303654365F6E700BFFA
:10596000FFFF010000C0055038B505460C46FFF7A3
:10597000D5FF05F5805301225A60A37C1BB1AB68AB
:1059800043F08043AB60E37C002B34D1637B228AFD
:105990001343E2891343EB60237BA26861682846C6
:1059A000FFF78CFF637D1BB1AB6843F48033AB60C2
:1059B000A37D1BB1AB6843F40043AB60E37D1B07E1
:1059C00003F0E043227E120502F4E0021343AB65CC
:1059D000637E023BDBB2012B12D90F4B0222C3F8CC
:1059E0009827637E012B10D0032B0ED005F50053B2
:1059F0000422DA650DE0217D2846FFF74FFFC5E759
:105A0000064B0222C3F89827EBE705F580530422E2
:105A1000DA6523786B6138BD00E0035000D0035095
:105A2000014B1868704700BFD4000020014B18607C
:105A3000704700BFD400002008B5094B1B6F03F06E
:105A40000703022B04D0032B05D0012B06D0FEE761
:105A5000FFF7E6FF03E0034B186800E0024808BDCB
:105A600000800050DC000020002D310108B5FFF758
:105A7000E3FF054B1B6FC3F303330133B0FBF3F0BC
:105A8000024B186008BD00BF00800050D00000200D
:105A90000048704700B4C404014B1868704700BF49
:105AA000DC00002008B5064B1860064B1B6F03F0A6
:105AB0000703032B00D008BDFFF7D8FFFBE700BFAB
:105AC000DC0000200080005000487047002D3101AC
